{
  "_format": "hh-sol-artifact-1",
  "contractName": "Exchange",
  "sourceName": "contracts/Exchange.sol",
  "abi": [
    {
      "inputs": [
        {
          "internalType": "address",
          "name": "_CryptoDevtoken",
          "type": "address"
        }
      ],
      "stateMutability": "nonpayable",
      "type": "constructor"
    },
    {
      "anonymous": false,
      "inputs": [
        {
          "indexed": true,
          "internalType": "address",
          "name": "owner",
          "type": "address"
        },
        {
          "indexed": true,
          "internalType": "address",
          "name": "spender",
          "type": "address"
        },
        {
          "indexed": false,
          "internalType": "uint256",
          "name": "value",
          "type": "uint256"
        }
      ],
      "name": "Approval",
      "type": "event"
    },
    {
      "anonymous": false,
      "inputs": [
        {
          "indexed": true,
          "internalType": "address",
          "name": "from",
          "type": "address"
        },
        {
          "indexed": true,
          "internalType": "address",
          "name": "to",
          "type": "address"
        },
        {
          "indexed": false,
          "internalType": "uint256",
          "name": "value",
          "type": "uint256"
        }
      ],
      "name": "Transfer",
      "type": "event"
    },
    {
      "inputs": [
        {
          "internalType": "uint256",
          "name": "_amount",
          "type": "uint256"
        }
      ],
      "name": "addLiquidity",
      "outputs": [
        {
          "internalType": "uint256",
          "name": "",
          "type": "uint256"
        }
      ],
      "stateMutability": "payable",
      "type": "function"
    },
    {
      "inputs": [
        {
          "internalType": "address",
          "name": "owner",
          "type": "address"
        },
        {
          "internalType": "address",
          "name": "spender",
          "type": "address"
        }
      ],
      "name": "allowance",
      "outputs": [
        {
          "internalType": "uint256",
          "name": "",
          "type": "uint256"
        }
      ],
      "stateMutability": "view",
      "type": "function"
    },
    {
      "inputs": [
        {
          "internalType": "address",
          "name": "spender",
          "type": "address"
        },
        {
          "internalType": "uint256",
          "name": "amount",
          "type": "uint256"
        }
      ],
      "name": "approve",
      "outputs": [
        {
          "internalType": "bool",
          "name": "",
          "type": "bool"
        }
      ],
      "stateMutability": "nonpayable",
      "type": "function"
    },
    {
      "inputs": [
        {
          "internalType": "address",
          "name": "account",
          "type": "address"
        }
      ],
      "name": "balanceOf",
      "outputs": [
        {
          "internalType": "uint256",
          "name": "",
          "type": "uint256"
        }
      ],
      "stateMutability": "view",
      "type": "function"
    },
    {
      "inputs": [],
      "name": "cryptoDevTokenAddress",
      "outputs": [
        {
          "internalType": "address",
          "name": "",
          "type": "address"
        }
      ],
      "stateMutability": "view",
      "type": "function"
    },
    {
      "inputs": [
        {
          "internalType": "uint256",
          "name": "_tokensSold",
          "type": "uint256"
        },
        {
          "internalType": "uint256",
          "name": "_minEth",
          "type": "uint256"
        }
      ],
      "name": "cryptoDevTokenToEth",
      "outputs": [],
      "stateMutability": "nonpayable",
      "type": "function"
    },
    {
      "inputs": [],
      "name": "decimals",
      "outputs": [
        {
          "internalType": "uint8",
          "name": "",
          "type": "uint8"
        }
      ],
      "stateMutability": "view",
      "type": "function"
    },
    {
      "inputs": [
        {
          "internalType": "address",
          "name": "spender",
          "type": "address"
        },
        {
          "internalType": "uint256",
          "name": "subtractedValue",
          "type": "uint256"
        }
      ],
      "name": "decreaseAllowance",
      "outputs": [
        {
          "internalType": "bool",
          "name": "",
          "type": "bool"
        }
      ],
      "stateMutability": "nonpayable",
      "type": "function"
    },
    {
      "inputs": [
        {
          "internalType": "uint256",
          "name": "_minTokens",
          "type": "uint256"
        }
      ],
      "name": "ethToCryptoDevToken",
      "outputs": [],
      "stateMutability": "payable",
      "type": "function"
    },
    {
      "inputs": [
        {
          "internalType": "uint256",
          "name": "inputAmount",
          "type": "uint256"
        },
        {
          "internalType": "uint256",
          "name": "inputReserve",
          "type": "uint256"
        },
        {
          "internalType": "uint256",
          "name": "outputReserve",
          "type": "uint256"
        }
      ],
      "name": "getAmountOfTokens",
      "outputs": [
        {
          "internalType": "uint256",
          "name": "",
          "type": "uint256"
        }
      ],
      "stateMutability": "pure",
      "type": "function"
    },
    {
      "inputs": [],
      "name": "getReserve",
      "outputs": [
        {
          "internalType": "uint256",
          "name": "",
          "type": "uint256"
        }
      ],
      "stateMutability": "view",
      "type": "function"
    },
    {
      "inputs": [
        {
          "internalType": "address",
          "name": "spender",
          "type": "address"
        },
        {
          "internalType": "uint256",
          "name": "addedValue",
          "type": "uint256"
        }
      ],
      "name": "increaseAllowance",
      "outputs": [
        {
          "internalType": "bool",
          "name": "",
          "type": "bool"
        }
      ],
      "stateMutability": "nonpayable",
      "type": "function"
    },
    {
      "inputs": [],
      "name": "name",
      "outputs": [
        {
          "internalType": "string",
          "name": "",
          "type": "string"
        }
      ],
      "stateMutability": "view",
      "type": "function"
    },
    {
      "inputs": [
        {
          "internalType": "uint256",
          "name": "_amount",
          "type": "uint256"
        }
      ],
      "name": "removeLiquidity",
      "outputs": [
        {
          "internalType": "uint256",
          "name": "",
          "type": "uint256"
        },
        {
          "internalType": "uint256",
          "name": "",
          "type": "uint256"
        }
      ],
      "stateMutability": "nonpayable",
      "type": "function"
    },
    {
      "inputs": [],
      "name": "symbol",
      "outputs": [
        {
          "internalType": "string",
          "name": "",
          "type": "string"
        }
      ],
      "stateMutability": "view",
      "type": "function"
    },
    {
      "inputs": [],
      "name": "totalSupply",
      "outputs": [
        {
          "internalType": "uint256",
          "name": "",
          "type": "uint256"
        }
      ],
      "stateMutability": "view",
      "type": "function"
    },
    {
      "inputs": [
        {
          "internalType": "address",
          "name": "recipient",
          "type": "address"
        },
        {
          "internalType": "uint256",
          "name": "amount",
          "type": "uint256"
        }
      ],
      "name": "transfer",
      "outputs": [
        {
          "internalType": "bool",
          "name": "",
          "type": "bool"
        }
      ],
      "stateMutability": "nonpayable",
      "type": "function"
    },
    {
      "inputs": [
        {
          "internalType": "address",
          "name": "sender",
          "type": "address"
        },
        {
          "internalType": "address",
          "name": "recipient",
          "type": "address"
        },
        {
          "internalType": "uint256",
          "name": "amount",
          "type": "uint256"
        }
      ],
      "name": "transferFrom",
      "outputs": [
        {
          "internalType": "bool",
          "name": "",
          "type": "bool"
        }
      ],
      "stateMutability": "nonpayable",
      "type": "function"
    }
  ],
  "bytecode": "0x60806040523480156200001157600080fd5b5060405162002b1f38038062002b1f833981810160405281019062000037919062000259565b6040518060400160405280601281526020017f43727970746f446576204c5020546f6b656e00000000000000000000000000008152506040518060400160405280600481526020017f43444c50000000000000000000000000000000000000000000000000000000008152508160039080519060200190620000bb92919062000192565b508060049080519060200190620000d492919062000192565b505050600073ffffffffffffffffffffffffffffffffffffffff168173ffffffffffffffffffffffffffffffffffffffff1614156200014a576040517f08c379a00000000000000000000000000000000000000000000000000000000081526004016200014190620002ac565b60405180910390fd5b80600560006101000a81548173ffffffffffffffffffffffffffffffffffffffff021916908373ffffffffffffffffffffffffffffffffffffffff16021790555050620003e1565b828054620001a09062000313565b90600052602060002090601f016020900481019282620001c4576000855562000210565b82601f10620001df57805160ff191683800117855562000210565b8280016001018555821562000210579182015b828111156200020f578251825591602001919060010190620001f2565b5b5090506200021f919062000223565b5090565b5b808211156200023e57600081600090555060010162000224565b5090565b6000815190506200025381620003c7565b92915050565b6000602082840312156200026c57600080fd5b60006200027c8482850162000242565b91505092915050565b600062000294602683620002ce565b9150620002a18262000378565b604082019050919050565b60006020820190508181036000830152620002c78162000285565b9050919050565b600082825260208201905092915050565b6000620002ec82620002f3565b9050919050565b600073ffffffffffffffffffffffffffffffffffffffff82169050919050565b600060028204905060018216806200032c57607f821691505b6020821081141562000343576200034262000349565b5b50919050565b7f4e487b7100000000000000000000000000000000000000000000000000000000600052602260045260246000fd5b7f546f6b656e2061646472657373207061737365642069732061206e756c6c206160008201527f6464726573730000000000000000000000000000000000000000000000000000602082015250565b620003d281620002df565b8114620003de57600080fd5b50565b61272e80620003f16000396000f3fe6080604052600436106101095760003560e01c806370a08231116100955780639e7a2922116100645780639e7a2922146103ad578063a457c2d7146103d8578063a9059cbb14610415578063dd62ed3e14610452578063f0566bb71461048f57610109565b806370a08231146102ca5780637386479e1461030757806395d89b41146103445780639c8f9f231461036f57610109565b8063313ce567116100dc578063313ce567146101de578063395093511461020957806351c6590a1461024657806359bf5d39146102765780636c25a25a146102a157610109565b806306fdde031461010e578063095ea7b31461013957806318160ddd1461017657806323b872dd146101a1575b600080fd5b34801561011a57600080fd5b506101236104ab565b6040516101309190611e09565b60405180910390f35b34801561014557600080fd5b50610160600480360381019061015b91906119d2565b61053d565b60405161016d9190611dee565b60405180910390f35b34801561018257600080fd5b5061018b61055b565b6040516101989190611feb565b60405180910390f35b3480156101ad57600080fd5b506101c860048036038101906101c39190611983565b610565565b6040516101d59190611dee565b60405180910390f35b3480156101ea57600080fd5b506101f361065d565b604051610200919061202f565b60405180910390f35b34801561021557600080fd5b50610230600480360381019061022b91906119d2565b610666565b60405161023d9190611dee565b60405180910390f35b610260600480360381019061025b9190611a37565b610712565b60405161026d9190611feb565b60405180910390f35b34801561028257600080fd5b5061028b61092f565b6040516102989190611feb565b60405180910390f35b3480156102ad57600080fd5b506102c860048036038101906102c39190611a89565b6109e1565b005b3480156102d657600080fd5b506102f160048036038101906102ec919061191e565b610b3e565b6040516102fe9190611feb565b60405180910390f35b34801561031357600080fd5b5061032e60048036038101906103299190611ac5565b610b86565b60405161033b9190611feb565b60405180910390f35b34801561035057600080fd5b50610359610c2b565b6040516103669190611e09565b60405180910390f35b34801561037b57600080fd5b5061039660048036038101906103919190611a37565b610cbd565b6040516103a4929190612006565b60405180910390f35b3480156103b957600080fd5b506103c2610e61565b6040516103cf9190611d73565b60405180910390f35b3480156103e457600080fd5b506103ff60048036038101906103fa91906119d2565b610e87565b60405161040c9190611dee565b60405180910390f35b34801561042157600080fd5b5061043c600480360381019061043791906119d2565b610f72565b6040516104499190611dee565b60405180910390f35b34801561045e57600080fd5b5061047960048036038101906104749190611947565b610f90565b6040516104869190611feb565b60405180910390f35b6104a960048036038101906104a49190611a37565b611017565b005b6060600380546104ba90612203565b80601f01602080910402602001604051908101604052809291908181526020018280546104e690612203565b80156105335780601f1061050857610100808354040283529160200191610533565b820191906000526020600020905b81548152906001019060200180831161051657829003601f168201915b5050505050905090565b600061055161054a611135565b848461113d565b6001905092915050565b6000600254905090565b6000610572848484611308565b6000600160008673ffffffffffffffffffffffffffffffffffffffff1673ffffffffffffffffffffffffffffffffffffffff16815260200190815260200160002060006105bd611135565b73ffffffffffffffffffffffffffffffffffffffff1673ffffffffffffffffffffffffffffffffffffffff1681526020019081526020016000205490508281101561063d576040517f08c379a000000000000000000000000000000000000000000000000000000000815260040161063490611eeb565b60405180910390fd5b61065185610649611135565b85840361113d565b60019150509392505050565b60006012905090565b6000610708610673611135565b848460016000610681611135565b73ffffffffffffffffffffffffffffffffffffffff1673ffffffffffffffffffffffffffffffffffffffff16815260200190815260200160002060008873ffffffffffffffffffffffffffffffffffffffff1673ffffffffffffffffffffffffffffffffffffffff168152602001908152602001600020546107039190612066565b61113d565b6001905092915050565b6000806000479050600061072461092f565b90506000600560009054906101000a900473ffffffffffffffffffffffffffffffffffffffff16905060008214156107f8578073ffffffffffffffffffffffffffffffffffffffff166323b872dd3330896040518463ffffffff1660e01b815260040161079393929190611d8e565b602060405180830381600087803b1580156107ad57600080fd5b505af11580156107c1573d6000803e3d6000fd5b505050506040513d601f19601f820116820180604052508101906107e59190611a0e565b508293506107f33385611589565b610923565b600034846108069190612147565b9050600081843461081791906120ed565b61082191906120bc565b905080881015610866576040517f08c379a000000000000000000000000000000000000000000000000000000000815260040161085d90611e4b565b60405180910390fd5b8273ffffffffffffffffffffffffffffffffffffffff166323b872dd3330846040518463ffffffff1660e01b81526004016108a393929190611d8e565b602060405180830381600087803b1580156108bd57600080fd5b505af11580156108d1573d6000803e3d6000fd5b505050506040513d601f19601f820116820180604052508101906108f59190611a0e565b50813461090061055b565b61090a91906120ed565b61091491906120bc565b95506109203387611589565b50505b83945050505050919050565b6000600560009054906101000a900473ffffffffffffffffffffffffffffffffffffffff1673ffffffffffffffffffffffffffffffffffffffff166370a08231306040518263ffffffff1660e01b815260040161098c9190611d73565b60206040518083038186803b1580156109a457600080fd5b505afa1580156109b8573d6000803e3d6000fd5b505050506040513d601f19601f820116820180604052508101906109dc9190611a60565b905090565b60006109eb61092f565b905060006109fa848347610b86565b905082811015610a3f576040517f08c379a0000000000000000000000000000000000000000000000000000000008152600401610a3690611f2b565b60405180910390fd5b600560009054906101000a900473ffffffffffffffffffffffffffffffffffffffff1673ffffffffffffffffffffffffffffffffffffffff166323b872dd3330876040518463ffffffff1660e01b8152600401610a9e93929190611d8e565b602060405180830381600087803b158015610ab857600080fd5b505af1158015610acc573d6000803e3d6000fd5b505050506040513d601f19601f82011682018060405250810190610af09190611a0e565b503373ffffffffffffffffffffffffffffffffffffffff166108fc829081150290604051600060405180830381858888f19350505050158015610b37573d6000803e3d6000fd5b5050505050565b60008060008373ffffffffffffffffffffffffffffffffffffffff1673ffffffffffffffffffffffffffffffffffffffff168152602001908152602001600020549050919050565b60008083118015610b975750600082115b610bd6576040517f08c379a0000000000000000000000000000000000000000000000000000000008152600401610bcd90611f8b565b60405180910390fd5b6000606385610be591906120ed565b905060008382610bf591906120ed565b9050600082606487610c0791906120ed565b610c119190612066565b90508082610c1f91906120bc565b93505050509392505050565b606060048054610c3a90612203565b80601f0160208091040260200160405190810160405280929190818152602001828054610c6690612203565b8015610cb35780601f10610c8857610100808354040283529160200191610cb3565b820191906000526020600020905b815481529060010190602001808311610c9657829003601f168201915b5050505050905090565b60008060008311610d03576040517f08c379a0000000000000000000000000000000000000000000000000000000008152600401610cfa90611ecb565b60405180910390fd5b60004790506000610d1261055b565b90506000818684610d2391906120ed565b610d2d91906120bc565b905060008287610d3b61092f565b610d4591906120ed565b610d4f91906120bc565b9050610d5b33886116e9565b3373ffffffffffffffffffffffffffffffffffffffff166108fc839081150290604051600060405180830381858888f19350505050158015610da1573d6000803e3d6000fd5b50600560009054906101000a900473ffffffffffffffffffffffffffffffffffffffff1673ffffffffffffffffffffffffffffffffffffffff1663a9059cbb33836040518363ffffffff1660e01b8152600401610dff929190611dc5565b602060405180830381600087803b158015610e1957600080fd5b505af1158015610e2d573d6000803e3d6000fd5b505050506040513d601f19601f82011682018060405250810190610e519190611a0e565b5081819550955050505050915091565b600560009054906101000a900473ffffffffffffffffffffffffffffffffffffffff1681565b60008060016000610e96611135565b73ffffffffffffffffffffffffffffffffffffffff1673ffffffffffffffffffffffffffffffffffffffff16815260200190815260200160002060008573ffffffffffffffffffffffffffffffffffffffff1673ffffffffffffffffffffffffffffffffffffffff16815260200190815260200160002054905082811015610f53576040517f08c379a0000000000000000000000000000000000000000000000000000000008152600401610f4a90611fab565b60405180910390fd5b610f67610f5e611135565b8585840361113d565b600191505092915050565b6000610f86610f7f611135565b8484611308565b6001905092915050565b6000600160008473ffffffffffffffffffffffffffffffffffffffff1673ffffffffffffffffffffffffffffffffffffffff16815260200190815260200160002060008373ffffffffffffffffffffffffffffffffffffffff1673ffffffffffffffffffffffffffffffffffffffff16815260200190815260200160002054905092915050565b600061102161092f565b9050600061103b3434476110359190612147565b84610b86565b905082811015611080576040517f08c379a000000000000000000000000000000000000000000000000000000000815260040161107790611f2b565b60405180910390fd5b600560009054906101000a900473ffffffffffffffffffffffffffffffffffffffff1673ffffffffffffffffffffffffffffffffffffffff1663a9059cbb33836040518363ffffffff1660e01b81526004016110dd929190611dc5565b602060405180830381600087803b1580156110f757600080fd5b505af115801561110b573d6000803e3d6000fd5b505050506040513d601f19601f8201168201806040525081019061112f9190611a0e565b50505050565b600033905090565b600073ffffffffffffffffffffffffffffffffffffffff168373ffffffffffffffffffffffffffffffffffffffff1614156111ad576040517f08c379a00000000000000000000000000000000000000000000000000000000081526004016111a490611f6b565b60405180910390fd5b600073ffffffffffffffffffffffffffffffffffffffff168273ffffffffffffffffffffffffffffffffffffffff16141561121d576040517f08c379a000000000000000000000000000000000000000000000000000000000815260040161121490611e8b565b60405180910390fd5b80600160008573ffffffffffffffffffffffffffffffffffffffff1673ffffffffffffffffffffffffffffffffffffffff16815260200190815260200160002060008473ffffffffffffffffffffffffffffffffffffffff1673ffffffffffffffffffffffffffffffffffffffff168152602001908152602001600020819055508173ffffffffffffffffffffffffffffffffffffffff168373ffffffffffffffffffffffffffffffffffffffff167f8c5be1e5ebec7d5bd14f71427d1e84f3dd0314c0f7b2291e5b200ac8c7c3b925836040516112fb9190611feb565b60405180910390a3505050565b600073ffffffffffffffffffffffffffffffffffffffff168373ffffffffffffffffffffffffffffffffffffffff161415611378576040517f08c379a000000000000000000000000000000000000000000000000000000000815260040161136f90611f4b565b60405180910390fd5b600073ffffffffffffffffffffffffffffffffffffffff168273ffffffffffffffffffffffffffffffffffffffff1614156113e8576040517f08c379a00000000000000000000000000000000000000000000000000000000081526004016113df90611e2b565b60405180910390fd5b6113f38383836118c0565b60008060008573ffffffffffffffffffffffffffffffffffffffff1673ffffffffffffffffffffffffffffffffffffffff16815260200190815260200160002054905081811015611479576040517f08c379a000000000000000000000000000000000000000000000000000000000815260040161147090611eab565b60405180910390fd5b8181036000808673ffffffffffffffffffffffffffffffffffffffff1673ffffffffffffffffffffffffffffffffffffffff16815260200190815260200160002081905550816000808573ffffffffffffffffffffffffffffffffffffffff1673ffffffffffffffffffffffffffffffffffffffff168152602001908152602001600020600082825461150c9190612066565b925050819055508273ffffffffffffffffffffffffffffffffffffffff168473ffffffffffffffffffffffffffffffffffffffff167fddf252ad1be2c89b69c2b068fc378daa952ba7f163c4a11628f55a4df523b3ef846040516115709190611feb565b60405180910390a36115838484846118c5565b50505050565b600073ffffffffffffffffffffffffffffffffffffffff168273ffffffffffffffffffffffffffffffffffffffff1614156115f9576040517f08c379a00000000000000000000000000000000000000000000000000000000081526004016115f090611fcb565b60405180910390fd5b611605600083836118c0565b80600260008282546116179190612066565b92505081905550806000808473ffffffffffffffffffffffffffffffffffffffff1673ffffffffffffffffffffffffffffffffffffffff168152602001908152602001600020600082825461166c9190612066565b925050819055508173ffffffffffffffffffffffffffffffffffffffff16600073ffffffffffffffffffffffffffffffffffffffff167fddf252ad1be2c89b69c2b068fc378daa952ba7f163c4a11628f55a4df523b3ef836040516116d19190611feb565b60405180910390a36116e5600083836118c5565b5050565b600073ffffffffffffffffffffffffffffffffffffffff168273ffffffffffffffffffffffffffffffffffffffff161415611759576040517f08c379a000000000000000000000000000000000000000000000000000000000815260040161175090611f0b565b60405180910390fd5b611765826000836118c0565b60008060008473ffffffffffffffffffffffffffffffffffffffff1673ffffffffffffffffffffffffffffffffffffffff168152602001908152602001600020549050818110156117eb576040517f08c379a00000000000000000000000000000000000000000000000000000000081526004016117e290611e6b565b60405180910390fd5b8181036000808573ffffffffffffffffffffffffffffffffffffffff1673ffffffffffffffffffffffffffffffffffffffff1681526020019081526020016000208190555081600260008282546118429190612147565b92505081905550600073ffffffffffffffffffffffffffffffffffffffff168373ffffffffffffffffffffffffffffffffffffffff167fddf252ad1be2c89b69c2b068fc378daa952ba7f163c4a11628f55a4df523b3ef846040516118a79190611feb565b60405180910390a36118bb836000846118c5565b505050565b505050565b505050565b6000813590506118d9816126b3565b92915050565b6000815190506118ee816126ca565b92915050565b600081359050611903816126e1565b92915050565b600081519050611918816126e1565b92915050565b60006020828403121561193057600080fd5b600061193e848285016118ca565b91505092915050565b6000806040838503121561195a57600080fd5b6000611968858286016118ca565b9250506020611979858286016118ca565b9150509250929050565b60008060006060848603121561199857600080fd5b60006119a6868287016118ca565b93505060206119b7868287016118ca565b92505060406119c8868287016118f4565b9150509250925092565b600080604083850312156119e557600080fd5b60006119f3858286016118ca565b9250506020611a04858286016118f4565b9150509250929050565b600060208284031215611a2057600080fd5b6000611a2e848285016118df565b91505092915050565b600060208284031215611a4957600080fd5b6000611a57848285016118f4565b91505092915050565b600060208284031215611a7257600080fd5b6000611a8084828501611909565b91505092915050565b60008060408385031215611a9c57600080fd5b6000611aaa858286016118f4565b9250506020611abb858286016118f4565b9150509250929050565b600080600060608486031215611ada57600080fd5b6000611ae8868287016118f4565b9350506020611af9868287016118f4565b9250506040611b0a868287016118f4565b9150509250925092565b611b1d8161217b565b82525050565b611b2c8161218d565b82525050565b6000611b3d8261204a565b611b478185612055565b9350611b578185602086016121d0565b611b60816122c2565b840191505092915050565b6000611b78602383612055565b9150611b83826122d3565b604082019050919050565b6000611b9b603e83612055565b9150611ba682612322565b604082019050919050565b6000611bbe602283612055565b9150611bc982612371565b604082019050919050565b6000611be1602283612055565b9150611bec826123c0565b604082019050919050565b6000611c04602683612055565b9150611c0f8261240f565b604082019050919050565b6000611c27602383612055565b9150611c328261245e565b604082019050919050565b6000611c4a602883612055565b9150611c55826124ad565b604082019050919050565b6000611c6d602183612055565b9150611c78826124fc565b604082019050919050565b6000611c90601a83612055565b9150611c9b8261254b565b602082019050919050565b6000611cb3602583612055565b9150611cbe82612574565b604082019050919050565b6000611cd6602483612055565b9150611ce1826125c3565b604082019050919050565b6000611cf9601083612055565b9150611d0482612612565b602082019050919050565b6000611d1c602583612055565b9150611d278261263b565b604082019050919050565b6000611d3f601f83612055565b9150611d4a8261268a565b602082019050919050565b611d5e816121b9565b82525050565b611d6d816121c3565b82525050565b6000602082019050611d886000830184611b14565b92915050565b6000606082019050611da36000830186611b14565b611db06020830185611b14565b611dbd6040830184611d55565b949350505050565b6000604082019050611dda6000830185611b14565b611de76020830184611d55565b9392505050565b6000602082019050611e036000830184611b23565b92915050565b60006020820190508181036000830152611e238184611b32565b905092915050565b60006020820190508181036000830152611e4481611b6b565b9050919050565b60006020820190508181036000830152611e6481611b8e565b9050919050565b60006020820190508181036000830152611e8481611bb1565b9050919050565b60006020820190508181036000830152611ea481611bd4565b9050919050565b60006020820190508181036000830152611ec481611bf7565b9050919050565b60006020820190508181036000830152611ee481611c1a565b9050919050565b60006020820190508181036000830152611f0481611c3d565b9050919050565b60006020820190508181036000830152611f2481611c60565b9050919050565b60006020820190508181036000830152611f4481611c83565b9050919050565b60006020820190508181036000830152611f6481611ca6565b9050919050565b60006020820190508181036000830152611f8481611cc9565b9050919050565b60006020820190508181036000830152611fa481611cec565b9050919050565b60006020820190508181036000830152611fc481611d0f565b9050919050565b60006020820190508181036000830152611fe481611d32565b9050919050565b60006020820190506120006000830184611d55565b92915050565b600060408201905061201b6000830185611d55565b6120286020830184611d55565b9392505050565b60006020820190506120446000830184611d64565b92915050565b600081519050919050565b600082825260208201905092915050565b6000612071826121b9565b915061207c836121b9565b9250827fffffffffffffffffffffffffffffffffffffffffffffffffffffffffffffffff038211156120b1576120b0612235565b5b828201905092915050565b60006120c7826121b9565b91506120d2836121b9565b9250826120e2576120e1612264565b5b828204905092915050565b60006120f8826121b9565b9150612103836121b9565b9250817fffffffffffffffffffffffffffffffffffffffffffffffffffffffffffffffff048311821515161561213c5761213b612235565b5b828202905092915050565b6000612152826121b9565b915061215d836121b9565b9250828210156121705761216f612235565b5b828203905092915050565b600061218682612199565b9050919050565b60008115159050919050565b600073ffffffffffffffffffffffffffffffffffffffff82169050919050565b6000819050919050565b600060ff82169050919050565b60005b838110156121ee5780820151818401526020810190506121d3565b838111156121fd576000848401525b50505050565b6000600282049050600182168061221b57607f821691505b6020821081141561222f5761222e612293565b5b50919050565b7f4e487b7100000000000000000000000000000000000000000000000000000000600052601160045260246000fd5b7f4e487b7100000000000000000000000000000000000000000000000000000000600052601260045260246000fd5b7f4e487b7100000000000000000000000000000000000000000000000000000000600052602260045260246000fd5b6000601f19601f8301169050919050565b7f45524332303a207472616e7366657220746f20746865207a65726f206164647260008201527f6573730000000000000000000000000000000000000000000000000000000000602082015250565b7f416d6f756e74206f6620746f6b656e732073656e74206973206c65737320746860008201527f616e20746865206d696e696d756d20746f6b656e732072657175697265640000602082015250565b7f45524332303a206275726e20616d6f756e7420657863656564732062616c616e60008201527f6365000000000000000000000000000000000000000000000000000000000000602082015250565b7f45524332303a20617070726f766520746f20746865207a65726f20616464726560008201527f7373000000000000000000000000000000000000000000000000000000000000602082015250565b7f45524332303a207472616e7366657220616d6f756e742065786365656473206260008201527f616c616e63650000000000000000000000000000000000000000000000000000602082015250565b7f5f616d6f756e742073686f756c642062652067726561746572207468616e207a60008201527f65726f0000000000000000000000000000000000000000000000000000000000602082015250565b7f45524332303a207472616e7366657220616d6f756e742065786365656473206160008201527f6c6c6f77616e6365000000000000000000000000000000000000000000000000602082015250565b7f45524332303a206275726e2066726f6d20746865207a65726f2061646472657360008201527f7300000000000000000000000000000000000000000000000000000000000000602082015250565b7f696e73756666696369656e74206f757470757420616d6f756e74000000000000600082015250565b7f45524332303a207472616e736665722066726f6d20746865207a65726f20616460008201527f6472657373000000000000000000000000000000000000000000000000000000602082015250565b7f45524332303a20617070726f76652066726f6d20746865207a65726f2061646460008201527f7265737300000000000000000000000000000000000000000000000000000000602082015250565b7f696e76616c696420726573657276657300000000000000000000000000000000600082015250565b7f45524332303a2064656372656173656420616c6c6f77616e63652062656c6f7760008201527f207a65726f000000000000000000000000000000000000000000000000000000602082015250565b7f45524332303a206d696e7420746f20746865207a65726f206164647265737300600082015250565b6126bc8161217b565b81146126c757600080fd5b50565b6126d38161218d565b81146126de57600080fd5b50565b6126ea816121b9565b81146126f557600080fd5b5056fea2646970667358221220ad80a20df226f6807e78b4289f726970584912b3acc26ef87c099fa0ebe8296864736f6c63430008040033",
  "linkReferences": {},
  "deployedLinkReferences": {}
}